:020000040801F1
:100000000000012055160108A10F0108A70F0108E3
:10001000AD0F0108B30F0108B90F0108000000007F
:10002000000000000000000000000000BF0F0108F9
:10003000CD0F010800000000DB0F0108E90F0108E7
:10004000A5160108A5160108A5160108A5160108A0
:10005000A5160108A5160108A5160108A516010890
:10006000A5160108A5160108A5160108A516010880
:10007000A5160108A5160108A5160108A516010870
:10008000A5160108A5160108A51601080000000024
:10009000000000000000000000000000A51601089C
:1000A000F50F010809100108A5160108A516010899
:1000B000A5160108A5160108A5160108A516010830
:1000C000A5160108A5160108A5160108A516010820
:1000D000A5160108A51601081D1001080000000062
:1000E00031100108A5160108A5160108000000003E
:1000F000000000000000000000000000A51601083C
:1001000000000000A5160108A5160108A5160108A3
:1001100000000000000000000000000000000000DF
:1001200041100108A5160108A5160108A516010829
:10013000A5160108000000000000000000000000FB
:10014000000000000000000000000000A5160108EB
:10015000A5160108A5160108A5160108A51601088F
:10016000A5160108A5160108000000000000000007
:10017000000000000000000000000000000000007F
:1001800000000000A51601080000000000000000AB
:04019000A5160108A7
:1001A00010B5054C237833B9044B13B10448AFF3B1
:1001B00000800123237010BD5C00002000000000BF
:1001C0006CA7010808B5034B1BB103490348AFF303
:1001D000008008BD00000000600000206CA701083E
:1001E00010F8012B11F8013B012A28BF9A42F7D0E1
:1001F000D01A7047034613F8012B002AFBD1181AB6
:1002000001387047000000000000000000000000FE
:1002100001F0FF01102A2BDB10F0070F08D010F8B7
:10022000013B013A8B422DD010F0070F42B3F6D1BB
:10023000F0B441EA012141EA014122F007047FF0D4
:1002400000070023F0E80256083C85EA010586EA2B
:10025000010685FA47F5A3FA87F586FA47F6A5FA67
:1002600087F68EB9EED1F0BC01F0FF0102F0070273
:1002700032B110F8013B013A83EA010313B1F8D11E
:100280000020704701387047002D06BF35460338FF
:10029000073815F0010F07D1013015F4807F02BF38
:1002A000013015F4C03F0130F0BC0138704700BF89
:1002B00053B94AB9002908BF00281CBF4FF0FF31CD
:1002C0004FF0FF3000F070B9ADF1080C6DE904CECD
:1002D00000F006F8DDF804E0DDE9022304B0704721
:1002E0002DE9F047089E0D4604460F46002B4AD1E3
:1002F0008A42944665D9B2FA82F343B102FA03FC0A
:10030000C3F120029F4020FA02F217439C404FEABB
:100310001C4E1FFA8CF5B7FBFEF1220C0EFB117779
:1003200042EA074201FB05F090420AD91CEB0202A7
:1003300001F1FF3780F01C81904240F219810239AF
:100340006244121AA4B2B2FBFEF00EFB102244EA81
:10035000024400FB05F5A5420AD91CEB040400F198
:10036000FF3280F00781A54240F2048164440238E4
:1003700040EA0140641B00211EB1DC400023C6E9B5
:100380000043BDE8F0878B4208D9002E00F0ED80D5
:100390000021C6E900050846BDE8F087B3FA83F1FD
:1003A000002949D1AB4202D3824200F2F880841A7C
:1003B00065EB030201201746002EE2D0C6E9004794
:1003C000DFE702B9FFDEB2FA82F3002B40F0908043
:1003D0008A1A4FEA1C471FFA8CFE0121B2FBF7F57F
:1003E00007FB1520220C42EA00420EFB05F090426A
:1003F00008D91CEB020205F1FF3802D2904200F24C
:10040000CB804546121AA4B2B2FBF7F007FB1022CC
:1004100044EA02440EFB00FEA64508D91CEB040486
:1004200000F1FF3202D2A64500F2BB801046A4EBD9
:100430000E0440EA05409FE7C1F120078B4022FAF5
:1004400007FC4CEA030C05FA01F420FA07F3FD401F
:100450004FEA1C492343B5FBF9F81FFA8CFE09FB50
:1004600018551C0C44EA054408FB0EF5A54202FA97
:1004700001F200FA01F00BD91CEB040408F1FF3A79
:1004800080F08880A54240F28580A8F1020864448B
:10049000641B9DB2B4FBF9F309FB134445EA044421
:1004A00003FB0EFEA64508D91CEB040403F1FF353F
:1004B0006CD2A6456AD9023B644443EA0843A3FBD5
:1004C0000295A4EB0E04AC42C846AE4656D353D0B8
:1004D00056B1B0EB080264EB0E0404FA07F7CA4009
:1004E000CC401743C6E9007418460021BDE8F087E8
:1004F000C3F1200102FA03FC20FA01F225FA01F10E
:100500009D402A434FEA1C471FFA8CFEB1FBF7F0CF
:1005100007FB1015110C41EA054100FB0EF58D4259
:1005200004FA03F408D91CEB010100F1FF382FD2C3
:100530008D422DD902386144491B92B2B1FBF7F5C7
:1005400007FB151142EA014205FB0EF1914208D961
:100550001CEB020205F1FF3816D2914214D9023D7C
:100560006244521A45EA004138E73146304608E70E
:100570003946E6E61046FBE64845A9D2B9EB020843
:1005800065EB0C0E013BA3E74546EAE72B4694E7F3
:100590004046D1E7D0467BE7023D624432E7084659
:1005A0000AE76444023842E7704700BF80B584B070
:1005B00000AF3B4600221A605A609A60DA60764BC0
:1005C000764A1A60744B4FF440325A60724B0022E4
:1005D0009A60714B01221A616F4B01221A766E4BA1
:1005E000002283F820206C4B0022DA626A4B6C4AAE
:1005F0009A62694B0022DA60674B0D22DA61664B22
:10060000012283F83020644B01225A61624801F0D4
:10061000E1F80346002B01D000F0DAFB00233B6039
:1006200001237B600323BB603B4619465A4801F017
:1006300015F90346002B01D000F0CAFB04233B60F0
:1006400002237B603B461946534801F007F90346F5
:10065000002B01D000F0BCFB05233B6003237B6033
:100660003B4619464C4801F0F9F80346002B01D0EF
:1006700000F0AEFB06233B6004237B603B4619463B
:10068000454801F0EBF80346002B01D000F0A0FB39
:1006900007233B6005237B600423BB603B46194670
:1006A0003D4801F0DBF80346002B01D000F090FB41
:1006B00008233B6006237B603B461946364801F021
:1006C000CDF80346002B01D000F082FB09233B60EC
:1006D00007237B603B4619462F4801F0BFF80346CD
:1006E000002B01D000F074FB0A233B6008237B60E1
:1006F0003B461946284801F0B1F80346002B01D0CB
:1007000000F066FB0B233B6009237B603B461946E8
:10071000214801F0A3F80346002B01D000F058FB5C
:100720000C233B600A237B603B4619461A4801F0C4
:1007300095F80346002B01D000F04AFB0D233B60E7
:100740000B237B603B461946134801F087F80346AC
:10075000002B01D000F03CFB0E233B600C237B60A0
:100760003B4619460C4801F079F80346002B01D0AE
:1007700000F02EFB0F233B600D237B603B461946A8
:10078000054801F06BF80346002B01D000F020FB78
:1007900000BF1037BD4680BD78000020002001401A
:1007A0000100000F80B58CB000AF786007F11C032A
:1007B00000221A605A609A60DA601A617B681B68CE
:1007C000494A934240F08C800023BB61474B5B6CED
:1007D000464A43F480735364444B5B6C03F4807368
:1007E000BB61BB6900237B61404B1B6B3F4A43F0FD
:1007F000040313633D4B1B6B03F004037B617B69B4
:1008000000233B61394B1B6B384A43F001031363F0
:10081000364B1B6B03F001033B613B690023FB601C
:10082000324B1B6B314A43F0020313632F4B1B6B9C
:1008300003F00203FB60FB683F23FB6103233B6281
:1008400000237B6207F11C031946294801F0B2FE20
:10085000F123FB6103233B6200237B6207F11C034E
:100860001946244801F0A6FE0323FB6103233B62E3
:1008700000237B6207F11C0319461F4801F09AFE12
:100880001E4B1F4A1A601D4B00225A601B4B002250
:100890009A601A4B0022DA60184B4FF480621A619A
:1008A000164B4FF400625A61144B4FF400529A6198
:1008B000124B4FF48072DA61104B00221A620F4B18
:1008C00000225A620D4801F0F9FA0346002B01D0CC
:1008D00000F07EFA7B68094A9A63084A7B68936352
:1008E00000BF3037BD4680BD0020014000380240C7
:1008F000000802400000024000040240C000002046
:100900001064024080B582B000AF00237B600C4BC6
:100910001B6B0B4A43F480031363094B1B6B03F4FB
:1009200080037B607B6800220021382001F08FFA71
:10093000382001F0A8FA00BF0837BD4680BD00BFCF
:100940000038024080B58AB000AF07F114030022DE
:100950001A605A609A60DA601A6100233B61544B56
:100960001B6B534A43F004031363514B1B6B03F09F
:1009700004033B613B690023FB604D4B1B6B4C4AFE
:1009800043F0800313634A4B1B6B03F08003FB604F
:10099000FB680023BB60464B1B6B454A43F00103D9
:1009A0001363434B1B6B03F00103BB60BB68002365
:1009B0007B603F4B1B6B3E4A43F0020313633C4B8F
:1009C0001B6B03F002037B607B6800224FF46041E5
:1009D000384801F073FF00224FF22451364801F0ED
:1009E0006DFF00224FF48071344801F067FF4FF42F
:1009F00060437B610123BB610023FB6100233B62F9
:100A000007F1140319462B4801F0D4FD41F6020307
:100A10007B610023BB610023FB6107F114031946CE
:100A2000264801F0C7FD4FF224537B610123BB61CF
:100A30000023FB6100233B6207F1140319461E48A3
:100A400001F0B8FD4FF480737B610123BB6100238B
:100A5000FB6100233B6207F114031946174801F0BC
:100A6000A9FD4FF400437B614FF48813BB61012360
:100A7000FB6107F114031946104801F09BFD182390
:100A80007B610023BB610023FB6107F1140319465E
:100A9000094801F08FFD00220021282001F0D7F93C
:100AA000282001F0F0F900BF2837BD4680BD00BF07
:100AB00000380240000802400004024000000240EA
:100AC00080B500AF124B134A1A60114B124A5A609C
:100AD0000F4B00229A600E4B0022DA600C4B4FF451
:100AE00080421A610A4B00225A61094B00229A6126
:100AF000074B0022DA61064B00221A62044801F01B
:100B000035FF0346002B01D000F062F900BF80BD25
:100B10002001002000540040801A060080B58AB0F1
:100B200000AF786007F1140300221A605A609A60DF
:100B3000DA601A617B681B68194A93422BD1002343
:100B40003B61184B1B6B174A43F002031363154BB1
:100B50001B6B03F002033B613B69C0237B611223E3
:100B6000BB610023FB6103233B6204237B6207F12B
:100B7000140319460C4801F01DFD0023FB60094BCE
:100B80001B6C084A43F400131364064B1B6C03F4FC
:100B90000013FB60FB6800BF2837BD4680BD00BF67
:100BA00000540040003802400004024080B500AF0D
:100BB000094B0A4A1A60084B04225A60064B40F659
:100BC000C4129A60044803F023F80346002B01D0B6
:100BD00000F0FEF800BF80BD74010020003000402E
:100BE0000FB480B582B000AF07F114033B603B68DF
:100BF0003A694FF480710B4808F074FC0948FFF71C
:100C0000F9FA0346FB80FA884FF4FA73054906485F
:100C100004F0F6FE00BF0837BD46BDE8804004B0D2
:100C2000704700BF78030020BC05002080B500AFEE
:100C300000F03AFD00F060F8FFF784FEFFF762FE77
:100C4000FFF7B4FCFFF73CFF00F0DEFA00F0F4FB26
:100C500000F0C8FB00F01AFC00F08CFAFFF7A6FFCA
:100C600000F044FA00F0BAF81B4B9B681A4A43F4B0
:100C7000805393601948FFF7B3FF01224FF480417E
:100C8000174801F01BFE01224FF40051144801F0F7
:100C900015FE07F02FFE134808F00CFA124808F072
:100CA00015FB124B1B78002B04D00F4A0D4910483E
:100CB00007F06EFB4FF40051094801F018FE4FF4A5
:100CC0008041074801F013FE0A4802F0E3FF4FF4A9
:100CD000FA7000F05BFDE4E7002004E084A701085F
:100CE000000802408001002068030020B6070020B1
:100CF000540600207401002080B594B000AF07F1C5
:100D0000200330220021184608F0FAFB07F10C03FB
:100D100000221A605A609A60DA601A610023BB6090
:100D2000294B1B6C284A43F080531364264B1B6CE1
:100D300003F08053BB60BB6800237B60234B1B68C0
:100D400023F44043214A43F4004313601F4B1B68C4
:100D500003F440437B607B6809233B624FF480339C
:100D60007B6201237B630223BB634FF48003FB633D
:100D700004233B6454237B640223BB640423FB648D
:100D800007F12003184602F095FF0346002B01D01F
:100D900000F01EF80F23FB6002233B6100237B6100
:100DA0004FF48053BB610023FB6107F10C03022168
:100DB000184603F0F7F90346002B01D000F008F8BD
:100DC00000BF5037BD4680BD003802400070004073
:100DD00080B400AF72B600BFFEE7000080B590B0EF
:100DE00000AF07F12C0300221A605A609A60DA60A3
:100DF0001A610023BB623B4628220021184608F0F6
:100E00007FFB3A4B3A4A1A60384B00225A60374B04
:100E10007F229A60354BFF22DA60344B00221A6140
:100E2000324B00225A61314B00229A612F4803F065
:100E3000C7FC0346002B01D0FFF7CAFF002387F849
:100E40002C30002387F82D30002387F82E30002324
:100E5000BB630023FB6307F12C03002219462348E0
:100E600003F031FD0346002B01D0FFF7B1FF012352
:100E700087F82830012387F82930012387F82A30A2
:100E8000002387F82B3007F1280300221946174862
:100E900003F0B3FD0346002B01D0FFF799FF0023B9
:100EA0003B7000237B700023BB7000237B6000231A
:100EB000FB6000233B610F4B7B610023BB61002380
:100EC000FB61012387F820304FF480737B623B463F
:100ED00000221946054803F014FE0346002B01D0FA
:100EE000FFF776FF00BF4037BD4680BD7804002085
:100EF000002800408000808080B588B000AF786016
:100F000007F10C0300221A605A609A60DA601A61D5
:100F10007B681B680C4A934211D10223FB604FF49B
:100F20000073BB6107F10C03184603F05BFB03463B
:100F3000002B01D0FFF74CFF044B01221A6000BFC9
:100F40002037BD4680BD00BF002800403C0E474210
:100F500080B483B000AF00237B60104B5B6C0F4A02
:100F600043F4804353640D4B5B6C03F480437B601C
:100F70007B6800233B60094B1B6C084A43F080539D
:100F80001364064B1B6C03F080533B603B6800BF4F
:100F90000C37BD465DF8047B704700BF0038024047
:100FA00080B400AFFEE780B400AFFEE780B400AFCE
:100FB000FEE780B400AFFEE780B400AFFEE780B488
:100FC00000AF00BFBD465DF8047B704780B400AF42
:100FD00000BFBD465DF8047B704780B400AF00BF22
:100FE000BD465DF8047B704780B500AF00F0AEFBF6
:100FF00000BF80BD80B500AF024804F044F800BFD8
:1010000080BD00BF9C04002080B500AF024804F002
:101010003AF800BF80BD00BFE404002080B500AFF7
:10102000024804F0D5FD00BF80BD00BFBC05002014
:1010300080B500AF4FF4004001F074FC00BF80BDEC
:1010400080B500AF024801F079F800BF80BD00BF55
:10105000C000002080B586B000AF7860144A154B00
:10106000D31A7B617B693B61134B1B68002B02D158
:10107000114B124A1A60104B1A687B6813443A6984
:101080009A4207D208F06AFA03460C221A604FF01F
:10109000FF3309E0084B1B68FB60074B1A687B684D
:1010A0001344054A1360FB6818461837BD4680BDD7
:1010B0000000012000040000980400200009002026
:1010C00080B400AF074BD3F88830064A43F470036E
:1010D000C2F88830034B044A9A6000BFBD465DF8F1
:1010E000047B704700ED00E00000010880B588B087
:1010F00000AF3B1D00221A605A609A60DA601A61E4
:101100005A619A61194B1A4A1A60184B42F2CF027F
:101110005A60164B00229A60144B42F20F72DA604A
:10112000124B00221A61114B00229A610F4803F002
:1011300002FF0346002B01D0FFF74AFE00237B602D
:101140000023BB600023FB6000237B613B1D00226A
:101150001946064804F088F80346002B01D0FFF733
:1011600037FE00BF2037BD4680BD00BF9C04002075
:101170000040014080B588B000AF3B1D00221A60DE
:101180005A609A60DA601A615A619A611C4B1D4A72
:101190001A601B4B53225A60194B00229A60184B5D
:1011A00040F2F312DA60164B00221A61144B00224F
:1011B0009A61134803F070FE0346002B01D0FFF73D
:1011C00007FE0F4803F0B7FE0346002B01D0FFF7E0
:1011D000FFFD00237B600023BB600023FB60002336
:1011E0007B613B1D00221946054804F03DF803468B
:1011F000002B01D0FFF7ECFD00BF2037BD4680BDBE
:10120000E40400200044014080B588B000AF3B1DDD
:1012100000221A605A609A60DA601A615A619A6113
:101220001E4B1F4A1A601D4B00225A601B4B0022A6
:101230009A601A4B41F26702DA60184B00221A6179
:10124000164B00229A61154803F026FE0346002B38
:1012500001D0FFF7BDFD114803F0BCFE0346002B93
:1012600001D0FFF7B5FD60237B600023BB60002346
:10127000FB6000237B613B1D00221946074804F0F8
:101280004FF80346002B01D0FFF7A2FD034800F002
:101290006FF800BF2037BD4680BD00BF2C05002081
:1012A0000048014080B584B000AF78607B681B685F
:1012B0000E4A934215D10023FB600D4B5B6C0C4A28
:1012C00043F4803353640A4B5B6C03F48033FB605C
:1012D000FB6800220021182000F0B9FD182000F062
:1012E000D2FD00BF1037BD4680BD00BF00400140A9
:1012F0000038024080B584B000AF78607B681B681E
:10130000184A934216D10023FB60174B5B6C164AB8
:1013100043F400335364144B5B6C03F40033FB6001
:10132000FB6800220021192000F091FD192000F037
:10133000AAFD12E07B681B680C4A93420DD1002382
:10134000BB60094B5B6C084A43F480235364064B33
:101350005B6C03F48023BB60BB6800BF1037BD46E5
:1013600080BD00BF004401400038024000480140F9
:1013700080B588B000AF786007F10C0300221A60D6
:101380005A609A60DA601A617B681B68124A93425D
:101390001ED10023BB60114B1B6B104A43F00203AC
:1013A00013630E4B1B6B03F00203BB60BB684FF46F
:1013B0000073FB6002233B6100237B610023BB6160
:1013C0000323FB6107F10C031946054801F0F2F80D
:1013D00000BF2037BD4680BD0048014000380240B4
:1013E0000004024080B500AF114B124A1A60104B46
:1013F0004FF496425A600E4B00229A600C4B00222A
:10140000DA600B4B00221A61094B0C225A61084B1F
:1014100000229A61064B0022DA61054804F0A0FA26
:101420000346002B01D0FFF7D3FC00BF80BD00BFF7
:10143000740500200010014080B500AF114B124A26
:101440001A60104B4FF4E1325A600E4B00229A6042
:101450000C4B0022DA600B4B00221A61094B0C2264
:101460005A61084B00229A61064B0022DA61054856
:1014700004F076FA0346002B01D0FFF7A9FC00BF69
:1014800080BD00BFBC0500200044004080B500AF17
:10149000114B124A1A60104B4FF4E1325A600E4B56
:1014A00000229A600C4B0022DA600B4B00221A617A
:1014B000094B0C225A61084B00229A61064B00220C
:1014C000DA61054804F04CFA0346002B01D0FFF71F
:1014D0007FFC00BF80BD00BF040600200014014057
:1014E00080B58EB000AF786007F1240300221A6047
:1014F0005A609A60DA601A617B681B684F4A9342AF
:101500002DD100233B624E4B5B6C4D4A43F01003E0
:1015100053644B4B5B6C03F010033B623B6A00234C
:10152000FB61474B1B6B464A43F001031363444B7B
:101530001B6B03F00103FB61FB694FF4C0637B622B
:101540000223BB620023FB6203233B6307237B630D
:1015500007F1240319463B4801F02CF86AE07B6848
:101560001B68394A934234D10023BB61344B1B6C56
:10157000334A43F400331364314B1B6C03F40033E0
:10158000BB61BB6900237B612D4B1B6B2C4A43F075
:10159000010313632A4B1B6B03F001037B617B691F
:1015A0000C237B620223BB620023FB6203233B63A9
:1015B00007237B6307F124031946224800F0FAFF52
:1015C00000220021262000F042FC262000F05BFCD7
:1015D00030E07B681B681D4A93422BD100233B619E
:1015E000174B5B6C164A43F020035364144B5B6C3F
:1015F00003F020033B613B690023FB60104B1B6B36
:101600000F4A43F0040313630D4B1B6B03F00403F9
:10161000FB60FB68C0237B620223BB620023FB628A
:1016200003233B6308237B6307F12403194608481F
:1016300000F0C0FF00BF3837BD4680BD001001403C
:101640000038024000000240004400400014014005
:1016500000080240DFF834D0FFF732FD0C480D4996
:101660000D4A002302E0D458C4500433C4188C42FD
:10167000F9D30A4A0A4C002301E013600432A24263
:10168000FBD307F071FFFFF7D1FA7047000001208C
:10169000000000205C000020DCB101085C0000209C
:1016A00000090020FEE7000080B500AF0E4B1B686C
:1016B0000D4A43F4007313600B4B1B680A4A43F452
:1016C00080631360084B1B68074A43F48073136000
:1016D000032000F0B1FB0F2000F008F8FFF738FC02
:1016E0000023184680BD00BF003C024080B582B098
:1016F00000AF7860124B1A68124B1B7819464FF4F2
:101700007A73B3FBF1F3B2FBF3F3184600F0C9FBB5
:101710000346002B01D001230EE07B680F2B0AD873
:10172000002279684FF0FF3000F091FB064A7B6899
:101730001360002300E0012318460837BD4680BD32
:1017400000000020080000200400002080B400AF4A
:10175000064B1B781A46064B1B681344044A136059
:1017600000BFBD465DF8047B704700BF0800002045
:101770004C06002080B400AF034B1B681846BD46E2
:101780005DF8047B704700BF4C06002080B584B034
:1017900000AF7860FFF7EEFFB8607B68FB60FB6826
:1017A000B3F1FF3F05D00A4B1B781A46FB68134480
:1017B000FB6000BFFFF7DEFF0246BB68D31AFA6882
:1017C0009A42F7D800BF00BF1037BD4680BD00BFAA
:1017D0000800002080B584B000AF78600023FB7360
:1017E0007B68002B01D1012333E07B681B6C002B4D
:1017F00009D17868FEF7D6FF7B6800225A647B68BF
:10180000002283F83C207B681B6C03F01003002B44
:1018100018D17B681B6C23F4885323F0020343F038
:1018200002027B681A64786800F03AF97B6800224B
:101830005A647B681B6C23F0030343F001027B684E
:101840001A6401E00123FB737B68002283F83C20CB
:10185000FB7B18461037BD4680BD000080B485B0C4
:1018600000AF786039600023BB607B6893F83C3040
:10187000012B01D1022305E17B68012283F83C2082
:101880003B681B68092B25D97B681B68D9683B68B6
:101890001B689BB21A4613465B0013441E3B07228B
:1018A00002FA03F3DA437B681B680A40DA607B685C
:1018B0001B68D9683B689A683B681B689BB21846EE
:1018C00003465B0003441E3B9A407B681B680A4347
:1018D000DA6022E07B681B6819693B681B689BB271
:1018E0001A4613465B001344072202FA03F3DA4355
:1018F0007B681B680A401A617B681B6819693B6832
:101900009A683B681B689BB2184603465B00034419
:101910009A407B681B680A431A613B685B68062B28
:1019200024D87B681B68596B3B685A6813469B0038
:101930001344053B1F2202FA03F3DA437B681B685A
:101940000A405A637B681B68596B3B681B689BB2F3
:1019500018463B685A6813469B001344053B00FA3F
:1019600003F27B681B680A435A634CE03B685B6880
:101970000C2B24D87B681B68196B3B685A6813468C
:101980009B001344233B1F2202FA03F3DA437B68D4
:101990001B680A401A637B681B68196B3B681B68ED
:1019A0009BB218463B685A6813469B001344233B7E
:1019B00000FA03F27B681B680A431A6323E07B6822
:1019C0001B68D96A3B685A6813469B001344413B25
:1019D0001F2202FA03F3DA437B681B680A40DA62CB
:1019E0007B681B68D96A3B681B689BB218463B68DA
:1019F0005A6813469B001344413B00FA03F27B688C
:101A00001B680A43DA62224BFB607B681B68214A31
:101A1000934209D13B681B68122B05D1FB685B68B8
:101A200043F48002FB685A607B681B68194A934242
:101A300023D13B681B68102B03D03B681B68112B1C
:101A40001BD1FB685B6843F40002FB685A603B688B
:101A50001B68102B11D1104B1B68104AA2FB0323EB
:101A60009A0C13469B0013445B00BB6002E0BB680A
:101A7000013BBB60BB68002BF9D17B68002283F877
:101A80003C20002318461437BD465DF8047B7047A0
:101A900000230140002001400000002083DE1B43A2
:101AA00080B485B000AF7860794BFB60FB685B6801
:101AB00023F44032FB685A60FB685A687B685B68B5
:101AC0001A43FB685A607B681B685A687B681B680E
:101AD00022F480725A607B681B6859687B681B69B6
:101AE0001A027B681B680A435A607B681B685A6845
:101AF0007B681B6822F040725A607B681B685968DB
:101B00007B689A687B681B680A435A607B681B681D
:101B10009A687B681B6822F400629A607B681B6885
:101B200099687B68DA687B681B680A439A607B68FF
:101B30009B6A584A934222D07B681B689A687B68EC
:101B40001B6822F070629A607B681B6899687B68EA
:101B50009A6A7B681B680A439A607B681B689A686C
:101B60007B681B6822F040529A607B681B6899680A
:101B70007B68DA6A7B681B680A439A600FE07B68BF
:101B80001B689A687B681B6822F070629A607B68A9
:101B90001B689A687B681B6822F040529A607B68D9
:101BA0001B689A687B681B6822F002029A607B6857
:101BB0001B6899687B681B7E5A007B681B680A4318
:101BC0009A607B6893F82030002B1BD07B681B68E1
:101BD0005A687B681B6842F400625A607B681B6825
:101BE0005A687B681B6822F460425A607B681B68F5
:101BF00059687B685B6A013B5A037B681B680A4330
:101C00005A6007E07B681B685A687B681B6822F48F
:101C100000625A607B681B68DA6A7B681B6822F482
:101C20007002DA627B681B68D96A7B68DB69013BFA
:101C30001A057B681B680A43DA627B681B689A682E
:101C40007B681B6822F400729A607B681B68996845
:101C50007B6893F830305A027B681B680A439A60AD
:101C60007B681B689A687B681B6822F480629A60B4
:101C70007B681B6899687B685B699A027B681B6854
:101C80000A439A6000BF1437BD465DF8047B704775
:101C9000002301400100000F80B485B000AF7860E0
:101CA0007B6803F00703FB600C4BDB68BB60BA6822
:101CB0004FF6FF031340BB60FB681A02BB68134377
:101CC00043F0BF6343F40033BB60044ABB68D36096
:101CD00000BF1437BD465DF8047B704700ED00E09F
:101CE00080B400AF044BDB681B0A03F007031846FF
:101CF000BD465DF8047B704700ED00E080B483B022
:101D000000AF0346FB7197F90730002B0BDBFB7923
:101D100003F01F02074997F907305B09012000FA19
:101D200002F241F8232000BF0C37BD465DF8047B6A
:101D3000704700BF00E100E080B483B000AF03460D
:101D40003960FB7197F90730002B0ADB3B68DAB288
:101D50000C4997F907301201D2B20B4483F80023E3
:101D60000AE03B68DAB20849FB7903F00F03043B51
:101D70001201D2B20B441A7600BF0C37BD465DF893
:101D8000047B704700E100E000ED00E080B489B022
:101D900000AFF860B9607A60FB6803F00703FB618D
:101DA000FB69C3F10703042B28BF0423BB61FB6954
:101DB0000433062B02D9FB69033B00E000237B615F
:101DC0004FF0FF32BB6902FA03F3DA43BB681A40F3
:101DD0007B699A404FF0FF317B6901FA03F3D943E5
:101DE0007B680B40134318462437BD465DF8047BDF
:101DF0007047000080B582B000AF78607B68013B1F
:101E0000B3F1807F01D301230FE00A4A7B68013BD5
:101E100053600F214FF0FF30FFF78EFF054B00227C
:101E20009A60044B07221A60002318460837BD4603
:101E300080BD00BF10E000E080B582B000AF7860E8
:101E40007868FFF729FF00BF0837BD4680BD80B521
:101E500086B000AF0346B9607A60FB7300237B61F4
:101E6000FFF73EFF78617A68B9687869FFF78EFFFF
:101E7000024697F90F3011461846FFF75DFF00BF85
:101E80001837BD4680BD80B582B000AF0346FB71F8
:101E900097F907301846FFF731FF00BF0837BD46F6
:101EA00080BD80B582B000AF78607868FFF7A2FF90
:101EB000034618460837BD4680BD000080B586B091
:101EC00000AF786000237B61FFF754FC38617B68CA
:101ED000002B01D1012399E07B68022283F8352091
:101EE0007B68002283F834207B681B681A687B6853
:101EF0001B6822F001021A600FE0FFF73BFC02466C
:101F00003B69D31A052B08D97B6820225A657B6868
:101F1000032283F83520032378E07B681B681B6865
:101F200003F00103002BE8D17B681B681B687B6111
:101F30007A69384B13407B617B685A687B689B6881
:101F40001A437B68DB681A437B681B691A437B680A
:101F50005B691A437B689B691A437B68DB691A4398
:101F60007B681B6A13437A6913437B617B685B6AF6
:101F7000042B07D17B68DA6A7B681B6B13437A6991
:101F800013437B617B681B687A691A607B681B68F6
:101F90005B697B617B6923F007037B617B685B6A1C
:101FA0007A6913437B617B685B6A042B17D17B687A
:101FB0009B6A7A6913437B617B68DB6A002B0ED0D6
:101FC000786800F07BFA0346002B08D07B6840223B
:101FD0005A657B68012283F83520012316E07B686F
:101FE0001B687A695A61786800F032FA0346FB6030
:101FF0007B68DB6D3F229A40FB689A607B68002219
:102000005A657B68012283F835200023184618376B
:10201000BD4680BD3F8010F080B584B000AF7860D1
:102020007B689B6DFB60FFF7A5FBB8607B6893F84E
:102030003530DBB2022B08D07B6880225A657B6882
:10204000002283F83420012352E07B681B681A6861
:102050007B681B6822F016021A607B681B685A694D
:102060007B681B6822F080025A617B681B6C002B26
:1020700003D17B689B6C002B07D07B681B681A68B8
:102080007B681B6822F008021A607B681B681A686C
:102090007B681B6822F001021A6013E0FFF76AFBFD
:1020A0000246BB68D31A052B0CD97B6820225A65DF
:1020B0007B68032283F835207B68002283F8342074
:1020C000032315E07B681B681B6803F00103002BEA
:1020D000E4D17B68DB6D3F229A40FB689A607B68A5
:1020E000012283F835207B68002283F83420002306
:1020F00018461037BD4680BD80B483B000AF78600D
:102100007B6893F83530DBB2022B04D07B688022E9
:102110005A6501230CE07B68052283F835207B6833
:102120001B681A687B681B6822F001021A60002392
:1021300018460C37BD465DF8047B704780B586B005
:1021400000AF78600023BB608E4B1B688E4AA2FBF9
:1021500003239B0A7B617B689B6D3B613B691B682A
:10216000FB607B68DB6D08229A40FB681340002B04
:102170001AD07B681B681B6803F00403002B13D084
:102180007B681B681A687B681B6822F004021A606F
:102190007B68DB6D08229A403B699A607B685B6DC7
:1021A00043F001027B685A657B68DB6D01229A402F
:1021B000FB681340002B12D07B681B685B6903F03F
:1021C0008003002B0BD07B68DB6D01229A403B69BA
:1021D0009A607B685B6D43F002027B685A657B689E
:1021E000DB6D04229A40FB681340002B12D07B6801
:1021F0001B681B6803F00203002B0BD07B68DB6DB0
:1022000004229A403B699A607B685B6D43F004024C
:102210007B685A657B68DB6D10229A40FB6813402F
:10222000002B43D07B681B681B6803F00803002B5E
:102230003CD07B68DB6D10229A403B699A607B68DA
:102240001B681B6803F48023002B18D07B681B6875
:102250001B6803F40023002B08D17B681B6C002B48
:1022600024D07B681B6C786898471FE07B689B6C68
:10227000002B1BD07B689B6C7868984716E07B68C6
:102280001B681B6803F48073002B07D17B681B68F5
:102290001A687B681B6822F008021A607B681B6C56
:1022A000002B03D07B681B6C786898477B68DB6DDC
:1022B00020229A40FB681340002B00F08F807B683F
:1022C0001B681B6803F01003002B00F087807B68FD
:1022D000DB6D20229A403B699A607B6893F8353029
:1022E000DBB2052B36D17B681B681A687B681B68DC
:1022F00022F016021A607B681B685A697B681B68AB
:1023000022F080025A617B681B6C002B03D17B6832
:102310009B6C002B07D07B681B681A687B681B6866
:1023200022F008021A607B68DB6D3F229A403B690D
:102330009A607B68012283F835207B68002283F84D
:1023400034207B681B6D002B7ED07B681B6D78680A
:10235000984779E07B681B681B6803F48023002B97
:102360001DD07B681B681B6803F40023002B0DD174
:102370007B685B6C002B31D07B685B6C786898471E
:102380002CE000BF00000020B5814E1B7B68DB6B9A
:10239000002B23D07B68DB6B786898471EE07B6856
:1023A0001B681B6803F48073002B0FD17B681B68CC
:1023B0001A687B681B6822F010021A607B68012291
:1023C00083F835207B68002283F834207B68DB6B40
:1023D000002B03D07B68DB6B786898477B685B6D6C
:1023E000002B32D07B685B6D03F00103002B22D001
:1023F0007B68052283F835207B681B681A687B6838
:102400001B6822F001021A60BB680133BB607A6965
:102410009A4207D37B681B681B6803F00103002BFB
:10242000F2D100E000BF7B68012283F835207B6891
:10243000002283F834207B68DB6C002B05D07B689E
:10244000DB6C7868984700E000BF1837BD4680BD58
:1024500080B485B000AF78607B681B68DBB2103B4E
:10246000144AA2FB03231B09FB60134AFB681344B5
:102470001B781A467B68DA65FB68032B09D97B68F1
:102480001B6823F47F7323F003031A1D7B689A658E
:1024900007E07B681B6823F47F7323F003037A68EB
:1024A00093657B689B6D18461437BD465DF8047BC9
:1024B000704700BFABAAAAAA74B0010880B485B067
:1024C00000AF78600023FB737B689B6ABB607B680E
:1024D0009B69002B1FD1BB68032B56D801A252F871
:1024E00023F000BFF524010807250108F5240108A1
:1024F0008B2501087B68DB6A03F08073002B46D0D4
:102500000123FB7343E07B68DB6AB3F1C07F40D1FA
:102510000123FB733DE07B689B69B3F5005F21D12C
:10252000BB68032B37D801A252F823F03D250108E0
:10253000432501083D250108552501080123FB73AA
:1025400030E07B68DB6A03F08073002B25D0012329
:10255000FB7322E07B68DB6AB3F1C07F1FD10123EC
:10256000FB731CE0BB68022B03D9BB68032B03D0B1
:1025700018E00123FB7315E07B68DB6A03F08073CE
:10258000002B0ED00123FB730BE000BF0AE000BF5D
:1025900008E000BF06E000BF04E000BF02E000BFAB
:1025A00000E000BFFB7B18461437BD465DF8047B96
:1025B000704700BF80B489B000AF786039600023F5
:1025C0007B6100233B610023BB610023FB6159E178
:1025D0000122FB6902FA03F37B613B681B687A699D
:1025E00013403B613A697B699A4240F048813B68FD
:1025F0005B6803F00303012B05D03B685B6803F0C5
:102600000303022B30D17B689B68BB61FB695B00D5
:10261000032202FA03F3DB43BA691340BB613B6850
:10262000DA68FB695B0002FA03F3BA691343BB6122
:102630007B68BA699A607B685B68BB610122FB6951
:1026400002FA03F3DB43BA691340BB613B685B6882
:102650001B0903F00102FB6902FA03F3BA69134391
:10266000BB617B68BA695A603B685B6803F003032F
:10267000032B17D07B68DB68BB61FB695B0003221F
:1026800002FA03F3DB43BA691340BB613B689A6803
:10269000FB695B0002FA03F3BA691343BB617B6811
:1026A000BA69DA603B685B6803F00303022B23D14D
:1026B000FB69DA087B68083253F82230BB61FB699A
:1026C00003F007039B000F2202FA03F3DB43BA690E
:1026D0001340BB613B681A69FB6903F007039B0069
:1026E00002FA03F3BA691343BB61FB69DA087B683A
:1026F0000832B96943F822107B681B68BB61FB692B
:102700005B00032202FA03F3DB43BA691340BB61A7
:102710003B685B6803F00302FB695B0002FA03F3AA
:10272000BA691343BB617B68BA691A603B685B682E
:1027300003F44033002B00F0A2800023FB60574BD2
:102740005B6C564A43F480435364544B5B6C03F414
:102750008043FB60FB68524AFB699B08023352F8D6
:102760002330BB61FB6903F003039B000F2202FAD5
:1027700003F3DB43BA691340BB617B68494A934268
:1027800019D07B68484A934213D07B68474A9342EA
:102790000DD07B68464A934207D07B68454A9342F6
:1027A00001D1042308E0072306E0032304E0022309
:1027B00002E0012300E00023FA6902F00302920024
:1027C0009340BA691343BB613549FB699B080233E7
:1027D000BA6941F82320384B9B68BB613B69DB43F6
:1027E000BA691340BB613B685B6803F48013002B3C
:1027F00003D0BA693B691343BB612F4ABB6993603D
:102800002D4BDB68BB613B69DB43BA691340BB619D
:102810003B685B6803F40013002B03D0BA693B6983
:102820001343BB61244ABB69D360234B5B68BB6124
:102830003B69DB43BA691340BB613B685B6803F4E7
:102840000033002B03D0BA693B691343BB611A4ABA
:10285000BB695360184B1B68BB613B69DB43BA69BA
:102860001340BB613B685B6803F48033002B03D0EB
:10287000BA693B691343BB610F4ABB691360FB69CB
:102880000133FB61FB690F2B7FF6A2AE00BF00BFD7
:102890002437BD465DF8047B704700BF0038024016
:1028A00000380140000002400004024000080240DD
:1028B000000C024000100240003C014080B483B094
:1028C00000AF78600B467B8013467B707B78002BD3
:1028D00003D07A887B689A6103E07B881A047B685E
:1028E0009A6100BF0C37BD465DF8047B704780B429
:1028F00085B000AF78600B467B807B685B69FB60CE
:102900007A88FB6813401A04FB68D9437B880B4024
:102910001A437B689A6100BF1437BD465DF8047B9B
:102920007047000080B582B000AF0346FB80084BC3
:102930005A69FB881340002B06D0054AFB88536177
:10294000FB88184600F006F800BF0837BD4680BD7A
:10295000003C014080B483B000AF0346FB8000BF61
:102960000C37BD465DF8047B7047000080B584B02D
:1029700000AF78607B68002B01D101232BE17B68DD
:1029800093F83D30DBB2002B06D17B68002283F840
:102990003C207868FEF7C2F87B68242283F83D204B
:1029A0007B681B681A687B681B6822F001021A604A
:1029B0007B681B681A687B681B6842F400421A60D7
:1029C0007B681B681A687B681B6822F400421A60E7
:1029D00001F0E0FDF8607B685B68814A934207D8AC
:1029E000FB68804A934294BF01230023DBB206E0D8
:1029F000FB687D4A934294BF01230023DBB2002B86
:102A000001D00123E7E0FB68784AA2FB03239B0C7B
:102A1000BB607B681B685B6823F03F017B681B68B9
:102A2000BA680A435A607B681B681B6A23F03F013F
:102A30007B685B686A4A934202D8BB68013309E04D
:102A4000BB684FF4967202FB03F3694AA2FB0323AF
:102A50009B0901337A6812680B4313627B681B6819
:102A6000DB6923F44F4222F0FF027B685B685C491C
:102A70008B4219D8FB68591E7B685B685B00B1FB11
:102A8000F3F3591C40F6FC730B40002B0AD0FB6893
:102A9000591E7B685B685B00B1FBF3F30133C3F342
:102AA0000B0351E004234FE07B689B68002B11D19E
:102AB000FB68581E7B6859680B465B000B44B0FBF3
:102AC000F3F30133C3F30B03002B0CBF01230023EB
:102AD000DBB212E0FB68581E7B6859680B469B000E
:102AE0000B4499000B44B0FBF3F30133C3F30B0326
:102AF000002B0CBF01230023DBB2002B01D00123EC
:102B000022E07B689B68002B0ED1FB68581E7B6817
:102B100059680B465B000B44B0FBF3F30133C3F37E
:102B20000B0343F400430FE0FB68581E7B685968B1
:102B30000B469B000B4499000B44B0FBF3F30133AD
:102B4000C3F30B0343F44043796809681343CB6133
:102B50007B681B681B6823F0C0017B68DA697B68AF
:102B60001B6A1A437B681B680A431A607B681B68F0
:102B70009B6823F4034323F0FF037A6811697A68A2
:102B8000D26811437A6812680B4393607B681B68B4
:102B9000DB6823F0FF017B685A697B689B691A43F5
:102BA0007B681B680A43DA607B681B681A687B686D
:102BB0001B6842F001021A607B6800221A647B687D
:102BC000202283F83D207B6800221A637B68002264
:102BD00083F83E20002318461037BD4680BD00BF55
:102BE000A08601007F841E00FF083D0083DE1B439A
:102BF000D34D621080B588B002AFF8600846114628
:102C00001A4603467B810B463B811346FB80FEF749
:102C1000B1FD7861FB6893F83D30DBB2202B40F0CA
:102C2000D9807B690093192301226D49F86800F06F
:102C3000B9FD0346002B01D00223CCE0FB6893F8DA
:102C40003C30012B01D10223C5E0FB68012283F84F
:102C50003C20FB681B681B6803F00103012B07D0B5
:102C6000FB681B681A68FB681B6842F001021A6067
:102C7000FB681B681A68FB681B6822F400621A6014
:102C8000FB68212283F83D20FB68402283F83E2028
:102C9000FB6800221A64FB683A6A5A62FB68BA8CC5
:102CA0005A85FB685B8D9AB2FB681A85FB684D4AB2
:102CB000DA62F8883A8979897B690193BB6A009363
:102CC0000346F86800F0F0FB0346002B52D00123C6
:102CD00081E07A69B96AF86800F07EFE0346002B4D
:102CE0000DD0FB681B6C042B07D1FB681B681A68AE
:102CF000FB681B6842F400721A6001236BE0FB68FA
:102D00005B6A1A78FB681B681A61FB685B6A5A1C6D
:102D1000FB685A62FB681B8D013B9AB2FB681A85FF
:102D2000FB685B8D9BB2013B9AB2FB685A85FB68DE
:102D30001B685B6903F00403042B1BD1FB681B8D2C
:102D4000002B17D0FB685B6A1A78FB681B681A6156
:102D5000FB685B6A5A1CFB685A62FB681B8D013B6F
:102D60009AB2FB681A85FB685B8D9BB2013B9AB2F5
:102D7000FB685A85FB681B8D002BAAD17A69B96A5A
:102D8000F86800F071FE0346002B0DD0FB681B6C49
:102D9000042B07D1FB681B681A68FB681B6842F4A8
:102DA00000721A60012316E0FB681B681A68FB6852
:102DB0001B6842F400721A60FB68202283F83D20F1
:102DC000FB68002283F83E20FB68002283F83C2049
:102DD000002300E0022318461837BD4680BD00BF1F
:102DE000020010000000FFFF80B58CB002AFF86059
:102DF000084611461A4603467B810B463B81134623
:102E0000FB80FEF7B7FC7862FB6893F83D30DBB2DD
:102E1000202B40F014827B6A0093192301227B4906
:102E2000F86800F0BFFC0346002B01D0022307E244
:102E3000FB6893F83C30012B01D1022300E2FB68D0
:102E4000012283F83C20FB681B681B6803F0010328
:102E5000012B07D0FB681B681A68FB681B6842F0EF
:102E600001021A60FB681B681A68FB681B6822F481
:102E700000621A60FB68222283F83D20FB68402232
:102E800083F83E20FB6800221A64FB683A6B5A62A2
:102E9000FB68BA8E5A85FB685B8D9AB2FB681A850F
:102EA000FB685B4ADA62F8883A8979897B6A019320
:102EB000BB6B00930346F86800F08CFB0346002BC5
:102EC00001D00123BCE1FB681B8D002B13D1002333
:102ED0003B62FB681B685B693B62FB681B689B6924
:102EE0003B623B6AFB681B681A68FB681B6842F41C
:102EF00000721A6090E1FB681B8D012B1BD1FB68EF
:102F00001B681A68FB681B6822F480621A60002341
:102F1000FB61FB681B685B69FB61FB681B689B6965
:102F2000FB61FB69FB681B681A68FB681B6842F45D
:102F300000721A6070E1FB681B8D022B1BD1FB68CD
:102F40001B681A68FB681B6822F480621A60FB68C1
:102F50001B681A68FB681B6842F400621A60002351
:102F6000BB61FB681B685B69BB61FB681B689B6995
:102F7000BB61BB6950E100237B61FB681B685B6937
:102F80007B61FB681B689B697B617B6944E1FB6833
:102F90001B8D032B00F2F180FB681B8D012B23D1CD
:102FA0007A6AB96BF86800F0A7FD0346002B01D0E0
:102FB000012345E1FB681B681A69FB685B6AD2B2B2
:102FC0001A70FB685B6A5A1CFB685A62FB681B8DAF
:102FD000013B9AB2FB681A85FB685B8D9BB2013B93
:102FE0009AB2FB685A8517E1FB681B8D022B4ED104
:102FF0007B6A0093BB6B00220649F86800F0D2FBA5
:103000000346002B08D001231AE100BF0200100084
:103010000000FFFF04000100FB681B681A68FB68E2
:103020001B6842F400721A60FB681B681A69FB682F
:103030005B6AD2B21A70FB685B6A5A1CFB685A6200
:10304000FB681B8D013B9AB2FB681A85FB685B8DA0
:103050009BB2013B9AB2FB685A85FB681B681A69F0
:10306000FB685B6AD2B21A70FB685B6A5A1CFB6829
:103070005A62FB681B8D013B9AB2FB681A85FB689C
:103080005B8D9BB2013B9AB2FB685A85C4E07B6AB8
:103090000093BB6B00226C49F86800F083FB034689
:1030A000002B01D00123CBE0FB681B681A68FB688A
:1030B0001B6822F480621A60FB681B681A69FB684F
:1030C0005B6AD2B21A70FB685B6A5A1CFB685A6270
:1030D000FB681B8D013B9AB2FB681A85FB685B8D10
:1030E0009BB2013B9AB2FB685A857B6A0093BB6B2B
:1030F00000225549F86800F055FB0346002B01D02B
:1031000001239DE0FB681B681A68FB681B6842F49A
:1031100000721A60FB681B681A69FB685B6AD2B2AE
:103120001A70FB685B6A5A1CFB685A62FB681B8D4D
:10313000013B9AB2FB681A85FB685B8D9BB2013B31
:103140009AB2FB685A85FB681B681A69FB685B6A60
:10315000D2B21A70FB685B6A5A1CFB685A62FB6841
:103160001B8D013B9AB2FB681A85FB685B8D9BB295
:10317000013B9AB2FB685A854EE07A6AB96BF868EF
:1031800000F0BAFC0346002B01D0012358E0FB6895
:103190001B681A69FB685B6AD2B21A70FB685B6ACB
:1031A0005A1CFB685A62FB681B8D013B9AB2FB6894
:1031B0001A85FB685B8D9BB2013B9AB2FB685A850E
:1031C000FB681B685B6903F00403042B24D1FB68D4
:1031D0001B8D032B07D1FB681B681A68FB681B68F3
:1031E00022F480621A60FB681B681A69FB685B6ADC
:1031F000D2B21A70FB685B6A5A1CFB685A62FB68A1
:103200001B8D013B9AB2FB681A85FB685B8D9BB2F4
:10321000013B9AB2FB685A85FB681B8D002B7FF43B
:10322000B6AEFB68202283F83D20FB68002283F8BD
:103230003E20FB68002283F83C20002300E00223AC
:1032400018462837BD4680BD0400010080B58AB00D
:1032500002AFF8607A603B600B467B81FEF78AFA2A
:10326000F8610023BB61FB6893F83D30DBB2202B93
:1032700040F01181FB690093192301228849F86805
:1032800000F090FA0346002B01D0022304E1FB6812
:1032900093F83C30012B01D10223FDE0FB680122B1
:1032A00083F83C20FB681B681B6803F00103012BBB
:1032B00007D0FB681B681A68FB681B6842F00102B4
:1032C0001A60FB681B681A68FB681B6822F40062BE
:1032D0001A60FB68242283F83D20FB6800221A64F0
:1032E000FB68704ADA62FB681B681A68FB681B6837
:1032F00042F480721A60FB6900933B6800224FF031
:103300000111F86800F04EFA0346002B0DD0FB685F
:103310001B681B6803F48073B3F5807F03D1FB68DF
:103320004FF400721A640323B6E07B89DBB21A46BD
:10333000FB681B6802F0FE021A61FEF71BFAF861D7
:10334000FB681B685B6903F00203022B0CBF0123BF
:103350000023DBB2FB75FB681B685B6903F48063C9
:10336000B3F5806F0CBF01230023DBB2BB7525E0F2
:10337000FEF700FA0246FB69D31A3A689A4202D372
:103380003B68002B03D1FB68A02283F83D20FB683B
:103390001B685B6903F00203022B0CBF01230023AF
:1033A000DBB2FB75FB681B685B6903F48063B3F5F4
:1033B000806F0CBF01230023DBB2BB75FB6893F861
:1033C0003D30DBB2A02B05D0FB7D002B02D1BB7DB5
:1033D000002BCDD0FB68202283F83D20FB681B68C2
:1033E0005B6903F00203022B29D1FB681B681A6892
:1033F000FB681B6842F400721A6000233B61FB68A3
:103400001B685B693B61FB681B689B693B613B69AF
:10341000FB690093192301222149F86800F0C2F9E1
:103420000346002B01D0012336E0FB68202283F8FD
:103430003D20FB68002283F83C2000232CE0FB6841
:103440001B681A68FB681B6842F400721A60FB680C
:103450001B686FF480625A61FB6900931923012293
:103460000F49F86800F09EF90346002B01D00123B4
:1034700012E0BB690133BB61BA697B689A42FFF411
:1034800032AFFB68202283F83D20FB68002283F8DE
:103490003C20012300E0022318462037BD4680BDB2
:1034A000020010000000FFFF80B588B002AFF86096
:1034B000084611461A4603467B810B463B8113465C
:1034C000FB80FB681B681A68FB681B6842F480720B
:1034D0001A607B6A00933B6A00224FF00111F86882
:1034E00000F060F90346002B0DD0FB681B681B68D9
:1034F00003F48073B3F5807F03D1FB684FF400724F
:103500001A6403235FE07B89DBB21A46FB681B6801
:1035100002F0FE021A617B6A3A6A2D49F86800F0EF
:10352000BBF90346002B01D001234CE000237B6153
:10353000FB681B685B697B61FB681B689B697B613F
:103540007B697A6A396AF86800F046FA0346002B0C
:103550000DD0FB681B6C042B07D1FB681B681A6835
:10356000FB681B6842F400721A6001232BE0FB88A1
:10357000012B05D13B89DAB2FB681B681A6121E097
:103580003B891B0A9BB2DAB2FB681B681A617A6A34
:10359000396AF86800F020FA0346002B0DD0FB686A
:1035A0001B6C042B07D1FB681B681A68FB681B683F
:1035B00042F400721A60012305E03B89DAB2FB682D
:1035C0001B681A61002318461837BD4680BD00BF2E
:1035D0000200010080B588B002AFF86008461146CD
:1035E0001A4603467B810B463B811346FB80FB68F2
:1035F0001B681A68FB681B6842F480621A60FB68EB
:103600001B681A68FB681B6842F480721A607B6A48
:1036100000933B6A00224FF00111F86800F0C2F8F5
:103620000346002B0DD0FB681B681B6803F48073F6
:10363000B3F5807F03D1FB684FF400721A64032353
:10364000AAE07B89DBB21A46FB681B6802F0FE0227
:103650001A617B6A3A6A5249F86800F01DF903461C
:10366000002B01D0012397E000237B61FB681B68DE
:103670005B697B61FB681B689B697B617B697A6A1C
:10368000396AF86800F0A8F90346002B0DD0FB68F2
:103690001B6C042B07D1FB681B681A68FB681B684E
:1036A00042F400721A60012376E0FB88012B05D1F9
:1036B0003B89DAB2FB681B681A6121E03B891B0A6F
:1036C0009BB2DAB2FB681B681A617A6A396AF868D9
:1036D00000F082F90346002B0DD0FB681B6C042B15
:1036E00007D1FB681B681A68FB681B6842F400720C
:1036F0001A60012350E03B89DAB2FB681B681A614B
:103700007A6A396AF86800F067F90346002B0DD031
:10371000FB681B6C042B07D1FB681B681A68FB68ED
:103720001B6842F400721A60012335E0FB681B68D5
:103730001A68FB681B6842F480721A607B6A009307
:103740003B6A00224FF00111F86800F02BF80346A5
:10375000002B0DD0FB681B681B6803F48073B3F566
:10376000807F03D1FB684FF400721A64032313E0D7
:103770007B89DBB243F00103DAB2FB681B681A6194
:103780007B6A3A6A0649F86800F086F80346002B1F
:1037900001D0012300E0002318461837BD4680BD44
:1037A0000200010080B584B000AFF860B9603B60F2
:1037B0001346FB7148E03B68B3F1FF3F44D0FDF78F
:1037C000D9FF0246BB69D31A3A689A4202D33B68D2
:1037D000002B39D1BB681B0CDBB2012B0DD1FB6870
:1037E0001B685B69DA43BB6813409BB2002B0CBFBC
:1037F00001230023DBB21A460CE0FB681B689B69BF
:10380000DA43BB6813409BB2002B0CBF012300239B
:10381000DBB21A46FB799A4216D1FB6800221A6382
:10382000FB68202283F83D20FB68002283F83E20BD
:10383000FB681B6C43F02002FB681A64FB680022E3
:1038400083F83C20012323E0BB681B0CDBB2012B77
:103850000DD1FB681B685B69DA43BB6813409BB200
:10386000002B0CBF01230023DBB21A460CE0FB68DF
:103870001B689B69DA43BB6813409BB2002B0CBFEB
:1038800001230023DBB21A46FB799A4293D000232E
:1038900018461037BD4680BD80B584B000AFF860D3
:1038A000B9607A603B6071E0FB681B685B6903F498
:1038B0008063B3F5806F23D1FB681B681A68FB68CF
:1038C0001B6842F400721A60FB681B686FF4806228
:1038D0005A61FB6800221A63FB68202283F83D20AE
:1038E000FB68002283F83E20FB681B6C43F0040257
:1038F000FB681A64FB68002283F83C20012367E020
:103900007B68B3F1FF3F41D0FDF734FF02463B68CF
:10391000D31A7A689A4202D37B68002B36D1BB68EF
:103920001B0CDBB2012B0CD1FB681B685B69DA4313
:10393000BB6813409BB2002B14BF01230023DBB2F2
:103940000BE0FB681B689B69DA43BB6813409BB2C2
:10395000002B14BF01230023DBB2002B16D0FB6821
:1039600000221A63FB68202283F83D20FB680022B6
:1039700083F83E20FB681B6C43F02002FB681A644E
:10398000FB68002283F83C20012321E0BB681B0C6C
:10399000DBB2012B0CD1FB681B685B69DA43BB68A7
:1039A00013409BB2002B14BF01230023DBB20BE0BA
:1039B000FB681B689B69DA43BB6813409BB2002B12
:1039C00014BF01230023DBB2002B7FF46DAF002373
:1039D00018461037BD4680BD80B584B000AFF86092
:1039E000B9607A6034E0F86800F0E3F80346002B31
:1039F00001D0012334E0BB68B3F1FF3F28D0FDF7CD
:103A0000B9FE02467B68D31ABA689A4202D3BB68F1
:103A1000002B1DD1FB681B685B6903F08003802BC2
:103A200016D0FB6800221A63FB68202283F83D2031
:103A3000FB68002283F83E20FB681B6C43F02002E9
:103A4000FB681A64FB68002283F83C20012307E02E
:103A5000FB681B685B6903F08003802BC3D10023E4
:103A600018461037BD4680BD80B584B000AFF86001
:103A7000B9607A6034E0F86800F09BF80346002BE8
:103A800001D0012334E0BB68B3F1FF3F28D0FDF73C
:103A900071FE02467B68D31ABA689A4202D3BB68A9
:103AA000002B1DD1FB681B685B6903F00403042B2A
:103AB00016D0FB6800221A63FB68202283F83D20A1
:103AC000FB68002283F83E20FB681B6C43F0200259
:103AD000FB681A64FB68002283F83C20012307E09E
:103AE000FB681B685B6903F00403042BC3D100234C
:103AF00018461037BD4680BD80B584B000AFF86071
:103B0000B9607A6049E0FB681B685B6903F01003E9
:103B1000102B19D1FB681B686FF010025A61FB680B
:103B200000221A63FB68202283F83D20FB680022F4
:103B300083F83E20FB681A6CFB681A64FB6800225D
:103B400083F83C20012330E0FDF714FE02467B6839
:103B5000D31ABA689A4202D3BB68002B1DD1FB6806
:103B60001B685B6903F04003402B16D0FB68002202
:103B70001A63FB68202283F83D20FB68002283F84B
:103B80003E20FB681B6C43F02002FB681A64FB6854
:103B9000002283F83C20012307E0FB681B685B6977
:103BA00003F04003402BAED1002318461037BD462A
:103BB00080BD80B483B000AF78607B681B685B69B0
:103BC00003F48063B3F5806F1BD17B681B686FF4CF
:103BD00080625A617B6800221A637B68202283F826
:103BE0003D207B68002283F83E207B681B6C43F0FD
:103BF00004027B681A647B68002283F83C2001235E
:103C000000E0002318460C37BD465DF8047B704782
:103C100080B584B000AF78607B68002B01D10123B0
:103C200034E07B681B684CF6CC421A607B681B68EA
:103C300045F255521A607B681B687A6852685A6070
:103C40007B681B687A6892689A60FDF793FDF8605C
:103C50000FE0FDF78FFD0246FB68D31A312B08D920
:103C60007B681B68DB6803F00303002B01D0032390
:103C70000CE07B681B68DB6803F00303002BE8D1D2
:103C80007B681B684AF6AA221A6000231846103780
:103C9000BD4680BD80B483B000AF78607B681B6890
:103CA0004AF6AA221A60002318460C37BD465DF872
:103CB000047B704780B586B000AF78607B68002BCE
:103CC00001D1012367E27B681B6803F00103002B2D
:103CD00075D0884B9B6803F00C03042B0CD0854BEC
:103CE0009B6803F00C03082B12D1824B5B6803F432
:103CF0008003B3F5800F0BD17E4B1B6803F40033B8
:103D0000002B5BD07B685B68002B57D1012342E21C
:103D10007B685B68B3F5803F06D1764B1B68754ABC
:103D200043F4803313601DE07B685B68B3F5A02F1C
:103D30000CD1704B1B686F4A43F4802313606D4BAA
:103D40001B686C4A43F4803313600BE0694B1B68BB
:103D5000684A23F480331360664B1B68654A23F47A
:103D6000802313607B685B68002B13D0FDF702FD96
:103D7000386108E0FDF7FEFC02463B69D31A642B6C
:103D800001D9032307E25B4B1B6803F40033002BCC
:103D9000F0D014E0FDF7EEFC386108E0FDF7EAFC36
:103DA00002463B69D31A642B01D90323F3E1514B3B
:103DB0001B6803F40033002BF0D100E000BF7B68E8
:103DC0001B6803F00203002B63D04A4B9B6803F08F
:103DD0000C03002B0BD0474B9B6803F00C03082B04
:103DE0001CD1444B5B6803F48003002B16D1414B7C
:103DF0001B6803F00203002B05D07B68DB68012BF6
:103E000001D00123C7E13B4B1B6823F0F8027B681C
:103E10001B69DB00374913430B603AE07B68DB68C2
:103E2000002B20D0344B01221A60FDF7A3FC38612F
:103E300008E0FDF79FFC02463B69D31A022B01D92B
:103E40000323A8E12B4B1B6803F00203002BF0D0E7
:103E5000284B1B6823F0F8027B681B69DB002549AF
:103E600013430B6015E0244B00221A60FDF782FC1F
:103E7000386108E0FDF77EFC02463B69D31A022B4D
:103E800001D9032387E11B4B1B6803F00203002BBE
:103E9000F0D17B681B6803F00803002B36D07B68E9
:103EA0005B69002B16D0154B01221A60FDF762FCEE
:103EB000386108E0FDF75EFC02463B69D31A022B2D
:103EC00001D9032367E10B4B5B6F03F00203002B67
:103ED000F0D01BE0094B00221A60FDF74BFC386163
:103EE0000EE0FDF747FC02463B69D31A022B07D9C7
:103EF000032350E10038024000004742800E474251
:103F0000884B5B6F03F00203002BEAD17B681B68D0
:103F100003F00403002B00F097800023FB75814B16
:103F20001B6C03F08053002B0FD10023BB607D4B33
:103F30001B6C7C4A43F0805313647A4B1B6C03F078
:103F40008053BB60BB680123FB75774B1B6803F490
:103F50008073002B18D1744B1B68734A43F4807331
:103F60001360FDF707FC386108E0FDF703FC02462B
:103F70003B69D31A022B01D903230CE16A4B1B685E
:103F800003F48073002BF0D07B689B68012B06D173
:103F9000644B1B6F634A43F0010313671CE07B68AB
:103FA0009B68052B0CD15F4B1B6F5E4A43F00403EB
:103FB00013675C4B1B6F5B4A43F0010313670BE015
:103FC000584B1B6F574A23F001031367554B1B6F68
:103FD000544A23F0040313677B689B68002B15D0B9
:103FE000FDF7C8FB38610AE0FDF7C4FB02463B69F8
:103FF000D31A41F28832934201D90323CBE0494BD3
:104000001B6F03F00203002BEED014E0FDF7B2FBB0
:1040100038610AE0FDF7AEFB02463B69D31A41F274
:104020008832934201D90323B5E03E4B1B6F03F066
:104030000203002BEED1FB7D012B05D1394B1B6C0C
:10404000384A23F0805313647B689B69002B00F08F
:10405000A180344B9B6803F00C03082B5CD07B6879
:104060009B69022B41D1314B00221A60FDF782FB84
:10407000386108E0FDF77EFB02463B69D31A022B4C
:1040800001D9032387E0274B1B6803F00073002B43
:10409000F0D17B68DA697B681B6A1A437B685B6ACC
:1040A0009B011A437B689B6A5B08013B1B041A4314
:1040B0007B68DB6A1B061B4913434B601B4B0122C9
:1040C0001A60FDF757FB386108E0FDF753FB024625
:1040D0003B69D31A022B01D903235CE0114B1B6807
:1040E00003F00073002BF0D054E0104B00221A6054
:1040F000FDF740FB386108E0FDF73CFB02463B69F9
:10410000D31A022B01D9032345E0064B1B6803F0A9
:104110000073002BF0D13DE07B689B69012B07D138
:10412000012338E000380240007000406000474240
:104130001B4B5B68FB607B689B69012B28D0FB688D
:1041400003F480027B68DB699A4221D1FB6803F0AB
:104150003F027B681B6A9A421AD1FA6847F6C0731D
:1041600013407A68526A9201934211D1FB6803F4BA
:1041700040327B689B6A5B08013B1B049A4207D173
:10418000FB6803F070627B68DB6A1B069A4201D011
:10419000012300E0002318461837BD4680BD00BF4C
:1041A0000038024080B584B000AF786039607B6829
:1041B000002B01D10123CCE0684B1B6803F00703FF
:1041C0003A689A420CD9654B3A68D2B21A70634B7E
:1041D0001B6803F007033A689A4201D00123B8E054
:1041E0007B681B6803F00203002B20D07B681B68F0
:1041F00003F00403002B05D0594B9B68584A43F445
:10420000E05393607B681B6803F00803002B05D024
:10421000534B9B68524A43F460439360504B9B68F6
:1042200023F0F0027B689B684D4913438B607B68E9
:104230001B6803F00103002B44D07B685B68012BF3
:1042400007D1474B1B6803F40033002B19D101231E
:104250007FE07B685B68022B03D07B685B68032B85
:1042600007D13F4B1B6803F00073002B09D10123DA
:104270006FE03B4B1B6803F00203002B01D10123CD
:1042800067E0374B9B6823F003027B685B68344927
:1042900013438B60FDF76EFAF8600AE0FDF76AFAE7
:1042A0000246FB68D31A41F28832934201D90323B4
:1042B0004FE02B4B9B6803F00C027B685B689B0014
:1042C0009A42EBD1254B1B6803F007033A689A42E8
:1042D0000CD2224B3A68D2B21A70204B1B6803F002
:1042E00007033A689A4201D0012332E07B681B68D9
:1042F00003F00403002B08D0194B9B6823F4E05211
:104300007B68DB68164913438B607B681B6803F08E
:104310000803002B09D0124B9B6823F460427B6892
:104320001B69DB000E4913438B6000F021F8024645
:104330000B4B9B681B0903F00F030A49CB5C22FA65
:1043400003F3094A1360094B1B681846FDF7CEF9C1
:10435000002318461037BD4680BD00BF003C024018
:10436000003802405CB0010800000020040000207A
:104370002DE9B04F94B000AF00237B640023FB64B1
:1043800000233B640023BB64794B9B6803F00C0360
:10439000082B0DD0082B00F2E180002B02D0042B5B
:1043A00003D0DBE0734BBB64DBE0734BBB64D8E052
:1043B0006F4B5B6803F03F037B646D4B5B6803F4FA
:1043C0008003002B63D06A4B5B689B090022BB63B0
:1043D000FA63BB6BC3F308033B6300237B63D7E93A
:1043E0000C4522462B464FF000004FF000015901CA
:1043F00041EAD261500102460B462146511A396109
:10440000294663EB01037B614FF000024FF000038C
:10441000D7E904AB59468B01514643EA91635146B3
:104420008A015146B2EB0108594663EB01094FF08E
:1044300000024FF000034FEAC90343EA58734FEA02
:10444000C80290469946234618EB0303BB602B46EF
:1044500049EB0303FB604FF000024FF00003D7E984
:10446000024529464B02214643EAD15321464A02DE
:10447000104619467B6C0022BB62FA62D7E90A2318
:10448000FBF716FF02460B461346FB6458E0384B19
:104490005B689B09002218461146C0F308033B6283
:1044A00000237B62D7E9088942464B464FF0000063
:1044B0004FF00001590141EAD261500102460B461A
:1044C0004146B2EB010A494663EB010B4FF0000293
:1044D0004FF000034FEA8B1343EA9A634FEA8A12C4
:1044E000B2EB0A0463EB0B054FF000024FF0000340
:1044F000EB0043EA5473E20014461D464346E318BA
:104500003B604B4645EB03037B604FF000024FF0EE
:104510000003D7E9004529468B02214643EA91531F
:1045200021468A02104619467B6C0022BB61FA6163
:10453000D7E90623FBF7BCFE02460B461346FB6495
:104540000B4B5B681B0C03F0030301335B003B6404
:10455000FA6C3B6CB2FBF3F3BB6402E0054BBB644B
:1045600000BFBB6C18465037BD46BDE8B08F00BFDA
:10457000003802400024F40000127A0080B400AF3A
:10458000034B1B681846BD465DF8047B704700BFAF
:104590000000002080B500AFFFF7F0FF0246054B9A
:1045A0009B689B0A03F007030349CB5C22FA03F3E1
:1045B000184680BD003802406CB0010880B500AFDD
:1045C000FFF7DCFF0246054B9B685B0B03F007031C
:1045D0000349CB5C22FA03F3184680BD0038024041
:1045E0006CB0010880B586B000AF786000237B61B5
:1045F00000233B617B681B6803F00103002B05D19E
:104600007B681B6803F00403002B35D0674B002246
:104610001A60FDF7AFF8786108E0FDF7ABF80246E5
:104620007B69D31A022B01D90323BAE0604B1B68C4
:1046300003F00063002BF0D17B685B689A017B6814
:104640009B681B075A491343C1F88430574B01221A
:104650001A60FDF78FF8786108E0FDF78BF80246E5
:104660007B69D31A022B01D903239AE0504B1B68B4
:1046700003F00063002BF0D07B681B6803F002039B
:10468000002B00F083800023FB60494B1B6C484AE1
:1046900043F080531364464B1B6C03F08053FB6064
:1046A000FB68444B1B68434A43F480731360FDF777
:1046B00061F8786108E0FDF75DF802467B69D31A7E
:1046C000022B01D903236CE03A4B1B6803F480737F
:1046D000002BF0D0364B1B6F03F440733B613B69FA
:1046E000002B2FD07B68DB6803F440733A699A4251
:1046F00028D02F4B1B6F23F440733B612E4B0122BC
:104700001A602D4B00221A60294A3B691367284B17
:104710001B6F03F00103012B14D1FDF72BF8786117
:104720000AE0FDF727F802467B69D31A41F2883286
:10473000934201D9032334E01D4B1B6F03F00203A6
:10474000002BEED07B68DB6803F44073B3F5407F49
:104750000DD1174B9B6823F4F8127B68DB6823F0BC
:10476000704323F44073124913438B6005E0104BF0
:104770009B680F4A23F4F81393600D4B1A6F7B6804
:10478000DB68C3F30B030A4913430B677B681B68A1
:1047900003F00803002B03D07B681A7C074B1A60D8
:1047A000002318461837BD4680BD00BF6800474249
:1047B0000038024000700040400E4742E01147427E
:1047C00080B584B000AF78600123FB737B68002B59
:1047D00001D1012373E07B685B7FDBB2002B05D145
:1047E0007B6800221A777868FCF786FB7B680222D8
:1047F0005A777B681B68DB6803F01003102B55D0D9
:104800007B681B68CA225A627B681B6853225A6203
:10481000786800F0C7FA0346FB73FB7B002B2CD1B2
:104820007B681B689B687A68126823F4E00323F0B6
:10483000400393607B681B6899687B685A687B6853
:104840001B691A437B685B691A437B681B680A43D0
:104850009A607B681B687A68D2681A617B681B68FB
:1048600019697B689B681A047B681B680A431A6194
:10487000786800F0CEFA0346FB73FB7B002B10D167
:104880007B681B681A6C7B681B6822F480221A64A0
:104890007B681B68196C7B689A697B681B680A4394
:1048A0001A647B681B68FF225A6201E00023FB73D5
:1048B000FB7B002B02D17B6801225A77FB7B1846D9
:1048C0001037BD4680BD90B587B000AFF860B960C5
:1048D0007A6000237B61FB681B7F012B01D10223DF
:1048E00087E0FB6801221A77FB6802225A777B680F
:1048F000002B26D1FB681B689B6803F04003002B4C
:1049000002D1BB680022DA70BB681B78184600F041
:10491000A5FA03461C04BB685B78184600F09EFAB3
:1049200003461B021C43BB689B78184600F096FAAE
:10493000034644EA0302BB68DB789B0513437B61B3
:1049400018E0FB681B689B6803F04003002B02D152
:10495000BB680022DA70BB681B781A04BB685B78FE
:104960001B021343BA6892781A43BB68DB789B0535
:1049700013437B61FB681B68CA225A62FB681B6891
:1049800053225A62F86800F00DFA0346FB74FB7C70
:10499000002B20D1FB681A687B6903F07F3323F07A
:1049A000FE431360FB681B689A68FB681B6822F46F
:1049B00080229A60FB681B689968BB68DA68BB68EC
:1049C0001B691A43FB681B680A439A60F86800F089
:1049D00020FA0346FB74FB7C002B02D1FB6801220A
:1049E0005A77FB681B68FF225A62FB6800221A771D
:1049F000FB7C18461C37BD4690BD90B587B000AF14
:104A0000F860B9607A6000237B61FB681B7F012B33
:104A100001D1022371E0FB6801221A77FB680222B0
:104A20005A777B68002B0ED1BB685B7803F01003CC
:104A3000002B08D0BB685B7823F01003DBB20A338D
:104A4000DAB2BB685A707B68002B1CD1BB68DB787C
:104A5000184600F003FA03461C04BB685B7818464E
:104A600000F0FCF903461B021C43BB689B78184608
:104A700000F0F4F9034644EA0302BB681B785B03C9
:104A800013437B610EE0BB68DB781A04BB685B787C
:104A90001B021343BA6892781A43BB681B785B0306
:104AA00013437B61FB681B68CA225A62FB681B6860
:104AB00053225A62F86800F075F90346FB74FB7CD8
:104AC000002B0CD1FB681A687B6923F07F4323F02D
:104AD000C0035360F86800F09CF90346FB74FB7C4C
:104AE000002B02D1FB6801225A77FB681B68FF226A
:104AF0005A62FB6800221A77FB7C18461C37BD46B9
:104B000090BD90B589B000AFF860B9607A600023BD
:104B1000BB610023FB6100237B61FB681B7F012BD2
:104B200001D1022313E1FB6801221A77FB680222FC
:104B30005A777B68002B37D1FB681B689B6803F0B2
:104B40004003002B02D1BB680022DA70BB681B78DF
:104B5000184600F083F903461C04BB685B781846CE
:104B600000F07CF903461B021C43BB689B78184687
:104B700000F074F9034644EA0302BB68DB789B0546
:104B800042EA0304BB6893F82030184600F066F947
:104B900003461B0644EA0302BB68DB691A43BB6891
:104BA0005B691343FB6123E0FB681B689B6803F0B0
:104BB0004003002B02D1BB680022DA70BB681B786F
:104BC0001A04BB685B781B021343BA6892781A43D5
:104BD000BB68DB789B051A43BB6893F820301B0643
:104BE0001A43BB68DB691A43BB685B691343FB610B
:104BF000BB685A68BB689B6913437B61FB681B6891
:104C0000CA225A62FB681B6853225A62BB685B6AFD
:104C1000B3F5807F48D1FB681B689A68FB681B6806
:104C200022F480729A60FB681B689A68FB681B68B4
:104C300022F480529A60FB681B68DB68DAB2FB687A
:104C40001B6862F4C072DA60FCF794FDB86113E08F
:104C5000FCF790FD0246BB69D31AB3F57A7F0BD9F6
:104C6000FB681B68FF225A62FB6803225A77FB68C5
:104C700000221A7703236AE0FB681B68DB6803F0F5
:104C80000103002BE4D0FB681B68FA69DA61FB685A
:104C90001B687A695A64FB681B689A68FB681B6822
:104CA00042F480729A6047E0FB681B689A68FB6870
:104CB0001B6822F400729A60FB681B689A68FB68A4
:104CC0001B6822F400529A60FB681B68DB68DAB24A
:104CD000FB681B6862F42072DA60FCF74BFDB86178
:104CE00013E0FCF747FD0246BB69D31AB3F57A7FA0
:104CF0000BD9FB681B68FF225A62FB6803225A77B4
:104D0000FB6800221A77032321E0FB681B68DB683D
:104D100003F00203002BE4D0FB681B68FA691A62F7
:104D2000FB681B687A699A64FB681B689A68FB6871
:104D30001B6842F400729A60FB681B68FF225A628B
:104D4000FB6801225A77FB6800221A770023184675
:104D50002437BD4690BD000080B584B000AF7860B8
:104D60000023FB607B681B680D4ADA60FCF702FDDC
:104D7000F86009E0FCF7FEFC0246FB68D31AB3F5C5
:104D80007A7F01D9032307E07B681B68DB6803F0A7
:104D90002003002BEED0002318461037BD4680BDFF
:104DA0005F3F010080B584B000AF78600023BB6036
:104DB0000023FB737B681B68DB6803F04003002B58
:104DC00022D17B681B68DA687B681B6842F080022E
:104DD000DA60FCF7CFFCB8600CE0FCF7CBFC0246D5
:104DE000BB68D31AB3F57A7F04D97B6804225A775B
:104DF0000123FB737B681B68DB6803F04003002B17
:104E000002D1FB7B012BE8D1FB7B18461037BD4656
:104E100080BD80B584B000AF78600023FB737B68F1
:104E20001B68DA687B681B6822F08002DA607B68A6
:104E30001B689B6803F02003002B0AD17868FFF7FA
:104E40008BFF0346002B04D07B6804225A77012392
:104E5000FB73FB7B18461037BD4680BD80B485B020
:104E600000AF0346FB710023FB6005E0FB680133E4
:104E7000FB60FB790A3BFB71FB79092BF6D8FB68D9
:104E8000DBB21B01DAB2FB791343DBB218461437ED
:104E9000BD465DF8047B704780B582B000AF786096
:104EA0007B68002B01D1012341E07B6893F83D3002
:104EB000DBB2002B06D17B68002283F83C207868A7
:104EC000FCF718FA7B68022283F83D207B681A6899
:104ED0007B6804331946104600F016FB7B680122FC
:104EE00083F846207B68012283F83E207B680122FC
:104EF00083F83F207B68012283F840207B680122F1
:104F000083F841207B68012283F842207B680122DC
:104F100083F843207B68012283F844207B680122C8
:104F200083F845207B68012283F83D200023184642
:104F30000837BD4680BD80B582B000AF78607B6821
:104F4000002B01D1012341E07B6893F83D30DBB2B7
:104F5000002B06D17B68002283F83C207868FCF7A0
:104F6000A1F97B68022283F83D207B681A687B6880
:104F700004331946104600F0C7FA7B68012283F813
:104F800046207B68012283F83E207B68012283F85B
:104F90003F207B68012283F840207B68012283F850
:104FA00041207B68012283F842207B68012283F83C
:104FB00043207B68012283F844207B68012283F828
:104FC00045207B68012283F83D20002318460837DE
:104FD000BD4680BD80B582B000AF78607B68002B95
:104FE00001D1012341E07B6893F83D30DBB2002B17
:104FF00006D17B68002283F83C20786800F039F8FD
:105000007B68022283F83D207B681A687B68043342
:105010001946104600F078FA7B68012283F8462092
:105020007B68012283F83E207B68012283F83F20C1
:105030007B68012283F840207B68012283F84120AD
:105040007B68012283F842207B68012283F8432099
:105050007B68012283F844207B68012283F8452085
:105060007B68012283F83D20002318460837BD469F
:1050700080BD80B483B000AF786000BF0C37BD4600
:105080005DF8047B704780B584B000AF78607B68C2
:105090001B68DB68FB607B681B681B69BB60BB68C7
:1050A00003F00203002B20D0FB6803F00203002B67
:1050B0001BD07B681B686FF002021A617B680122BB
:1050C0001A777B681B689B6903F00303002B03D0EE
:1050D000786800F0FBF905E0786800F0EDF9786891
:1050E00000F0FEF97B6800221A77BB6803F0040326
:1050F000002B20D0FB6803F00403002B1BD07B683F
:105100001B686FF004021A617B6802221A777B68C1
:105110001B689B6903F44073002B03D0786800F090
:10512000D5F905E0786800F0C7F9786800F0D8F99B
:105130007B6800221A77BB6803F00803002B20D09D
:10514000FB6803F00803002B1BD07B681B686FF023
:1051500008021A617B6804221A777B681B68DB6986
:1051600003F00303002B03D0786800F0AFF905E0EB
:10517000786800F0A1F9786800F0B2F97B68002245
:105180001A77BB6803F01003002B20D0FB6803F0F4
:105190001003002B1BD07B681B686FF010021A6194
:1051A0007B6808221A777B681B68DB6903F440730D
:1051B000002B03D0786800F089F905E0786800F0EA
:1051C0007BF9786800F08CF97B6800221A77BB685D
:1051D00003F00103002B0CD0FB6803F00103002B4C
:1051E00007D07B681B686FF001021A61786800F0D5
:1051F00059F9BB6803F08003002B0CD0FB6803F067
:105200008003002B07D07B681B686FF080021A6157
:10521000786800F09BFBBB6803F04003002B0CD0C8
:10522000FB6803F04003002B07D07B681B686FF01E
:1052300040021A61786800F05DF9BB6803F0200352
:10524000002B0CD0FB6803F02003002B07D07B68F9
:105250001B686FF020021A61786800F06DFB00BFD8
:105260001037BD4680BD000080B586B000AFF86045
:10527000B9607A600023FB75FB6893F83C30012B22
:1052800001D1022348E0FB68012283F83C207B68BF
:105290000C2B39D801A252F823F000BFD1520108DB
:1052A000095301080953010809530108DF52010895
:1052B000095301080953010809530108ED52010877
:1052C000095301080953010809530108FB52010859
:1052D000FB681B68B968184600F0A2F917E0FB6884
:1052E0001B68B968184600F001FA10E0FB681B68FB
:1052F000B968184600F066FA09E0FB681B68B968EF
:10530000184600F0C9FA02E00123FB7500BFFB68F4
:10531000002283F83C20FB7D18461837BD4680BD2F
:1053200080B586B000AFF860B9607A600023FB7585
:10533000FB6893F83C30012B01D10223AEE0FB68FF
:10534000012283F83C207B680C2B00F29F8001A295
:1053500052F823F0895301088D5401088D54010837
:105360008D540108C95301088D5401088D5401085A
:105370008D5401080B5401088D5401088D54010807
:105380008D5401084B540108FB681B68B968184626
:1053900000F046F9FB681B689A69FB681B6842F0DD
:1053A00008029A61FB681B689A69FB681B6822F017
:1053B00004029A61FB681B689969BB681A69FB68FB
:1053C0001B680A439A6164E0FB681B68B968184669
:1053D00000F08CF9FB681B689A69FB681B6842F453
:1053E00000629A61FB681B689A69FB681B6822F47B
:1053F00080629A61FB681B689969BB681B691A0225
:10540000FB681B680A439A6143E0FB681B68B96844
:10541000184600F0D7F9FB681B68DA69FB681B685F
:1054200042F00802DA61FB681B68DA69FB681B68F6
:1054300022F00402DA61FB681B68D969BB681A694B
:10544000FB681B680A43DA6123E0FB681B68B968E4
:10545000184600F021FAFB681B68DA69FB681B68D4
:1054600042F40062DA61FB681B68DA69FB681B685A
:1054700022F48062DA61FB681B68D969BB681B692A
:105480001A02FB681B680A43DA6102E00123FB751C
:1054900000BFFB68002283F83C20FB7D18461837CC
:1054A000BD4680BD80B483B000AF786000BF0C37CC
:1054B000BD465DF8047B704780B483B000AF786070
:1054C00000BF0C37BD465DF8047B704780B483B0E5
:1054D00000AF786000BF0C37BD465DF8047B7047B5
:1054E00080B483B000AF786000BF0C37BD465DF874
:1054F000047B704780B483B000AF786000BF0C3786
:10550000BD465DF8047B704780B485B000AF78601D
:1055100039607B681B68FB607B683A4A93420FD016
:105520007B68B3F1804F0BD07B68374A934207D03A
:105530007B68364A934203D07B68354A934208D150
:10554000FB6823F07003FB603B685B68FA681343F9
:10555000FB607B682B4A93421BD07B68B3F1804F82
:1055600017D07B68284A934213D07B68274A93421E
:105570000FD07B68264A93420BD07B68254A934222
:1055800007D07B68244A934203D07B68234A934226
:1055900008D1FB6823F44073FB603B68DB68FA6862
:1055A0001343FB60FB6823F080023B685B69134395
:1055B000FB607B68FA681A603B689A687B68DA620D
:1055C0003B681A687B689A627B680E4A934203D1F3
:1055D0003B681A697B681A637B6801225A617B68A1
:1055E0001B6903F00103012B05D17B681B6923F0C4
:1055F00001027B681A6100BF1437BD465DF8047B69
:10560000704700BF00000140000400400008004057
:10561000000C0040004001400044014000480140AF
:1056200080B487B000AF786039607B681B6A7B61AB
:105630007B681B6A23F001027B681A627B685B68E7
:105640003B617B689B69FB60FB6823F07003FB6038
:10565000FB6823F00303FB603B681B68FA68134395
:10566000FB607B6923F002037B613B689B687A697E
:1056700013437B617B681C4A93420CD17B6923F006
:1056800008037B613B68DB687A6913437B617B6954
:1056900023F004037B617B68134A934211D13B6979
:1056A00023F480733B613B6923F400733B613B68E7
:1056B0005B693A6913433B613B689B693A691343F1
:1056C0003B617B683A695A607B68FA689A613B681B
:1056D0005A687B685A637B687A691A6200BF1C3714
:1056E000BD465DF8047B70470000014080B487B080
:1056F00000AF786039607B681B6A7B617B681B6ADE
:1057000023F010027B681A627B685B683B617B68F0
:105710009B69FB60FB6823F4E043FB60FB6823F4B8
:105720004073FB603B681B681B02FA681343FB6015
:105730007B6923F020037B613B689B681B017A69CE
:1057400013437B617B681E4A93420DD17B6923F032
:1057500080037B613B68DB681B017A6913437B61D3
:105760007B6923F040037B617B68154A934213D128
:105770003B6923F480633B613B6923F400633B6135
:105780003B685B699B003A6913433B613B689B69DB
:105790009B003A6913433B617B683A695A607B68B6
:1057A000FA689A613B685A687B689A637B687A6991
:1057B0001A6200BF1C37BD465DF8047B704700BF0E
:1057C0000000014080B487B000AF786039607B682A
:1057D0001B6A7B617B681B6A23F480727B681A6298
:1057E0007B685B683B617B68DB69FB60FB6823F07F
:1057F0007003FB60FB6823F00303FB603B681B68DE
:10580000FA681343FB607B6923F400737B613B6898
:105810009B681B027A6913437B617B681D4A934234
:105820000DD17B6923F400637B613B68DB681B025D
:105830007A6913437B617B6923F480637B617B68B6
:10584000144A934213D13B6923F480533B613B6973
:1058500023F400533B613B685B691B013A691343C6
:105860003B613B689B691B013A6913433B617B6861
:105870003A695A607B68FA68DA613B685A687B6803
:10588000DA637B687A691A6200BF1C37BD465DF82F
:10589000047B70470000014080B487B000AF78609F
:1058A00039607B681B6A3B617B681B6A23F480520A
:1058B0007B681A627B685B687B617B68DB69FB6085
:1058C000FB6823F4E043FB60FB6823F44073FB6058
:1058D0003B681B681B02FA681343FB603B6923F4B7
:1058E00000533B613B689B681B033A6913433B6170
:1058F0007B68104A934209D17B6923F480437B6122
:105900003B685B699B017A6913437B617B687A69B9
:105910005A607B68FA68DA613B685A687B681A6487
:105920007B683A691A6200BF1C37BD465DF8047B8C
:10593000704700BF0000014080B483B000AF7860C2
:1059400000BF0C37BD465DF8047B704780B483B060
:1059500000AF786000BF0C37BD465DF8047B704730
:1059600080B582B000AF78607B68002B01D1012345
:1059700042E07B6893F84130DBB2002B06D17B68B4
:10598000002283F840207868FBF7AAFD7B68242278
:1059900083F841207B681B68DA687B681B6822F407
:1059A0000052DA60786800F0F3FD7B681B681A69C2
:1059B0007B681B6822F490421A617B681B685A69F5
:1059C0007B681B6822F02A025A617B681B68DA68D0
:1059D0007B681B6842F40052DA607B6800225A64DC
:1059E0007B68202283F841207B68202283F84220B4
:1059F0007B6800225A63002318460837BD4680BDE5
:105A000080B58AB002AFF860B9603B601346FB8096
:105A100000237B61FB6893F84130DBB2202B75D10A
:105A2000BB68002B02D0FB88002B01D101236EE064
:105A3000FB6800225A64FB68212283F84120FBF7AF
:105A400099FE7861FB68FA889A84FB68FA88DA84A0
:105A5000FB689B68B3F5805F08D1FB681B69002B6E
:105A600004D10023FB61BB68BB6103E0BB68FB6141
:105A70000023BB612EE03B6800937B6900228021FC
:105A8000F86800F055FB0346002B05D0FB68202288
:105A900083F8412003233AE0FB69002B0BD1BB695B
:105AA0001B881A46FB681B68C2F308025A60BB6970
:105AB0000233BB6107E0FB691A78FB681B685A6018
:105AC000FB690133FB61FB68DB8C9BB2013B9AB243
:105AD000FB68DA84FB68DB8C9BB2002BCBD13B6884
